{
  "_format": "hh-sol-artifact-1",
  "contractName": "MyERC721",
  "sourceName": "contracts/MyERC721.sol",
  "abi": [
    {
      "inputs": [
        {
          "internalType": "string",
          "name": "_name",
          "type": "string"
        },
        {
          "internalType": "string",
          "name": "_symbol",
          "type": "string"
        }
      ],
      "stateMutability": "nonpayable",
      "type": "constructor"
    },
    {
      "anonymous": false,
      "inputs": [
        {
          "indexed": true,
          "internalType": "address",
          "name": "owner",
          "type": "address"
        },
        {
          "indexed": true,
          "internalType": "address",
          "name": "approved",
          "type": "address"
        },
        {
          "indexed": true,
          "internalType": "uint256",
          "name": "tokenId",
          "type": "uint256"
        }
      ],
      "name": "Approval",
      "type": "event"
    },
    {
      "anonymous": false,
      "inputs": [
        {
          "indexed": true,
          "internalType": "address",
          "name": "owner",
          "type": "address"
        },
        {
          "indexed": true,
          "internalType": "address",
          "name": "operator",
          "type": "address"
        },
        {
          "indexed": false,
          "internalType": "bool",
          "name": "approved",
          "type": "bool"
        }
      ],
      "name": "ApprovalForAll",
      "type": "event"
    },
    {
      "anonymous": false,
      "inputs": [
        {
          "indexed": false,
          "internalType": "uint256",
          "name": "_fromTokenId",
          "type": "uint256"
        },
        {
          "indexed": false,
          "internalType": "uint256",
          "name": "_toTokenId",
          "type": "uint256"
        }
      ],
      "name": "BatchMetadataUpdate",
      "type": "event"
    },
    {
      "anonymous": false,
      "inputs": [
        {
          "indexed": false,
          "internalType": "uint256",
          "name": "_tokenId",
          "type": "uint256"
        }
      ],
      "name": "MetadataUpdate",
      "type": "event"
    },
    {
      "anonymous": false,
      "inputs": [
        {
          "indexed": true,
          "internalType": "bytes32",
          "name": "role",
          "type": "bytes32"
        },
        {
          "indexed": true,
          "internalType": "bytes32",
          "name": "previousAdminRole",
          "type": "bytes32"
        },
        {
          "indexed": true,
          "internalType": "bytes32",
          "name": "newAdminRole",
          "type": "bytes32"
        }
      ],
      "name": "RoleAdminChanged",
      "type": "event"
    },
    {
      "anonymous": false,
      "inputs": [
        {
          "indexed": true,
          "internalType": "bytes32",
          "name": "role",
          "type": "bytes32"
        },
        {
          "indexed": true,
          "internalType": "address",
          "name": "account",
          "type": "address"
        },
        {
          "indexed": true,
          "internalType": "address",
          "name": "sender",
          "type": "address"
        }
      ],
      "name": "RoleGranted",
      "type": "event"
    },
    {
      "anonymous": false,
      "inputs": [
        {
          "indexed": true,
          "internalType": "bytes32",
          "name": "role",
          "type": "bytes32"
        },
        {
          "indexed": true,
          "internalType": "address",
          "name": "account",
          "type": "address"
        },
        {
          "indexed": true,
          "internalType": "address",
          "name": "sender",
          "type": "address"
        }
      ],
      "name": "RoleRevoked",
      "type": "event"
    },
    {
      "anonymous": false,
      "inputs": [
        {
          "indexed": true,
          "internalType": "address",
          "name": "from",
          "type": "address"
        },
        {
          "indexed": true,
          "internalType": "address",
          "name": "to",
          "type": "address"
        },
        {
          "indexed": true,
          "internalType": "uint256",
          "name": "tokenId",
          "type": "uint256"
        }
      ],
      "name": "Transfer",
      "type": "event"
    },
    {
      "inputs": [],
      "name": "DEFAULT_ADMIN_ROLE",
      "outputs": [
        {
          "internalType": "bytes32",
          "name": "",
          "type": "bytes32"
        }
      ],
      "stateMutability": "view",
      "type": "function"
    },
    {
      "inputs": [],
      "name": "MINTER_ROLE",
      "outputs": [
        {
          "internalType": "bytes32",
          "name": "",
          "type": "bytes32"
        }
      ],
      "stateMutability": "view",
      "type": "function"
    },
    {
      "inputs": [
        {
          "internalType": "address",
          "name": "to",
          "type": "address"
        },
        {
          "internalType": "uint256",
          "name": "tokenId",
          "type": "uint256"
        }
      ],
      "name": "approve",
      "outputs": [],
      "stateMutability": "nonpayable",
      "type": "function"
    },
    {
      "inputs": [
        {
          "internalType": "address",
          "name": "owner",
          "type": "address"
        }
      ],
      "name": "balanceOf",
      "outputs": [
        {
          "internalType": "uint256",
          "name": "",
          "type": "uint256"
        }
      ],
      "stateMutability": "view",
      "type": "function"
    },
    {
      "inputs": [
        {
          "internalType": "uint256",
          "name": "tokenId",
          "type": "uint256"
        }
      ],
      "name": "getApproved",
      "outputs": [
        {
          "internalType": "address",
          "name": "",
          "type": "address"
        }
      ],
      "stateMutability": "view",
      "type": "function"
    },
    {
      "inputs": [
        {
          "internalType": "bytes32",
          "name": "role",
          "type": "bytes32"
        }
      ],
      "name": "getRoleAdmin",
      "outputs": [
        {
          "internalType": "bytes32",
          "name": "",
          "type": "bytes32"
        }
      ],
      "stateMutability": "view",
      "type": "function"
    },
    {
      "inputs": [
        {
          "internalType": "bytes32",
          "name": "role",
          "type": "bytes32"
        },
        {
          "internalType": "address",
          "name": "account",
          "type": "address"
        }
      ],
      "name": "grantRole",
      "outputs": [],
      "stateMutability": "nonpayable",
      "type": "function"
    },
    {
      "inputs": [
        {
          "internalType": "bytes32",
          "name": "role",
          "type": "bytes32"
        },
        {
          "internalType": "address",
          "name": "account",
          "type": "address"
        }
      ],
      "name": "hasRole",
      "outputs": [
        {
          "internalType": "bool",
          "name": "",
          "type": "bool"
        }
      ],
      "stateMutability": "view",
      "type": "function"
    },
    {
      "inputs": [
        {
          "internalType": "address",
          "name": "owner",
          "type": "address"
        },
        {
          "internalType": "address",
          "name": "operator",
          "type": "address"
        }
      ],
      "name": "isApprovedForAll",
      "outputs": [
        {
          "internalType": "bool",
          "name": "",
          "type": "bool"
        }
      ],
      "stateMutability": "view",
      "type": "function"
    },
    {
      "inputs": [],
      "name": "name",
      "outputs": [
        {
          "internalType": "string",
          "name": "",
          "type": "string"
        }
      ],
      "stateMutability": "view",
      "type": "function"
    },
    {
      "inputs": [
        {
          "internalType": "uint256",
          "name": "tokenId",
          "type": "uint256"
        }
      ],
      "name": "ownerOf",
      "outputs": [
        {
          "internalType": "address",
          "name": "",
          "type": "address"
        }
      ],
      "stateMutability": "view",
      "type": "function"
    },
    {
      "inputs": [
        {
          "internalType": "bytes32",
          "name": "role",
          "type": "bytes32"
        },
        {
          "internalType": "address",
          "name": "account",
          "type": "address"
        }
      ],
      "name": "renounceRole",
      "outputs": [],
      "stateMutability": "nonpayable",
      "type": "function"
    },
    {
      "inputs": [
        {
          "internalType": "bytes32",
          "name": "role",
          "type": "bytes32"
        },
        {
          "internalType": "address",
          "name": "account",
          "type": "address"
        }
      ],
      "name": "revokeRole",
      "outputs": [],
      "stateMutability": "nonpayable",
      "type": "function"
    },
    {
      "inputs": [
        {
          "internalType": "address",
          "name": "to",
          "type": "address"
        },
        {
          "internalType": "string",
          "name": "_tokenURI",
          "type": "string"
        }
      ],
      "name": "safeMint",
      "outputs": [
        {
          "internalType": "uint256",
          "name": "",
          "type": "uint256"
        }
      ],
      "stateMutability": "nonpayable",
      "type": "function"
    },
    {
      "inputs": [
        {
          "internalType": "address",
          "name": "from",
          "type": "address"
        },
        {
          "internalType": "address",
          "name": "to",
          "type": "address"
        },
        {
          "internalType": "uint256",
          "name": "tokenId",
          "type": "uint256"
        }
      ],
      "name": "safeTransferFrom",
      "outputs": [],
      "stateMutability": "nonpayable",
      "type": "function"
    },
    {
      "inputs": [
        {
          "internalType": "address",
          "name": "from",
          "type": "address"
        },
        {
          "internalType": "address",
          "name": "to",
          "type": "address"
        },
        {
          "internalType": "uint256",
          "name": "tokenId",
          "type": "uint256"
        },
        {
          "internalType": "bytes",
          "name": "data",
          "type": "bytes"
        }
      ],
      "name": "safeTransferFrom",
      "outputs": [],
      "stateMutability": "nonpayable",
      "type": "function"
    },
    {
      "inputs": [
        {
          "internalType": "address",
          "name": "operator",
          "type": "address"
        },
        {
          "internalType": "bool",
          "name": "approved",
          "type": "bool"
        }
      ],
      "name": "setApprovalForAll",
      "outputs": [],
      "stateMutability": "nonpayable",
      "type": "function"
    },
    {
      "inputs": [
        {
          "internalType": "bytes4",
          "name": "interfaceId",
          "type": "bytes4"
        }
      ],
      "name": "supportsInterface",
      "outputs": [
        {
          "internalType": "bool",
          "name": "",
          "type": "bool"
        }
      ],
      "stateMutability": "view",
      "type": "function"
    },
    {
      "inputs": [],
      "name": "symbol",
      "outputs": [
        {
          "internalType": "string",
          "name": "",
          "type": "string"
        }
      ],
      "stateMutability": "view",
      "type": "function"
    },
    {
      "inputs": [
        {
          "internalType": "uint256",
          "name": "index",
          "type": "uint256"
        }
      ],
      "name": "tokenByIndex",
      "outputs": [
        {
          "internalType": "uint256",
          "name": "",
          "type": "uint256"
        }
      ],
      "stateMutability": "view",
      "type": "function"
    },
    {
      "inputs": [
        {
          "internalType": "address",
          "name": "owner",
          "type": "address"
        },
        {
          "internalType": "uint256",
          "name": "index",
          "type": "uint256"
        }
      ],
      "name": "tokenOfOwnerByIndex",
      "outputs": [
        {
          "internalType": "uint256",
          "name": "",
          "type": "uint256"
        }
      ],
      "stateMutability": "view",
      "type": "function"
    },
    {
      "inputs": [
        {
          "internalType": "uint256",
          "name": "tokenId",
          "type": "uint256"
        }
      ],
      "name": "tokenURI",
      "outputs": [
        {
          "internalType": "string",
          "name": "",
          "type": "string"
        }
      ],
      "stateMutability": "view",
      "type": "function"
    },
    {
      "inputs": [],
      "name": "totalSupply",
      "outputs": [
        {
          "internalType": "uint256",
          "name": "",
          "type": "uint256"
        }
      ],
      "stateMutability": "view",
      "type": "function"
    },
    {
      "inputs": [
        {
          "internalType": "address",
          "name": "from",
          "type": "address"
        },
        {
          "internalType": "address",
          "name": "to",
          "type": "address"
        },
        {
          "internalType": "uint256",
          "name": "tokenId",
          "type": "uint256"
        }
      ],
      "name": "transferFrom",
      "outputs": [],
      "stateMutability": "nonpayable",
      "type": "function"
    }
  ],
  "bytecode": "0x60806040523480156200001157600080fd5b50604051620047ba380380620047ba8339818101604052810190620000379190620003c4565b818181600090816200004a919062000694565b5080600190816200005c919062000694565b505050620000a07f9f2df0fed2c77648de5860a4cc508cd0818c85b8b8a1ab4ceeef8d981c8956a662000094620000cc60201b60201c565b620000d460201b60201c565b620000c46000801b620000b8620000cc60201b60201c565b620000d460201b60201c565b50506200077b565b600033905090565b620000e68282620001c660201b60201c565b620001c2576001600b600084815260200190815260200160002060000160008373ffffffffffffffffffffffffffffffffffffffff1673ffffffffffffffffffffffffffffffffffffffff16815260200190815260200160002060006101000a81548160ff02191690831515021790555062000167620000cc60201b60201c565b73ffffffffffffffffffffffffffffffffffffffff168173ffffffffffffffffffffffffffffffffffffffff16837f2f8788117e7eff1d82e926ec794901d17c78024a50270940304540a733656f0d60405160405180910390a45b5050565b6000600b600084815260200190815260200160002060000160008373ffffffffffffffffffffffffffffffffffffffff1673ffffffffffffffffffffffffffffffffffffffff16815260200190815260200160002060009054906101000a900460ff16905092915050565b6000604051905090565b600080fd5b600080fd5b600080fd5b600080fd5b6000601f19601f8301169050919050565b7f4e487b7100000000000000000000000000000000000000000000000000000000600052604160045260246000fd5b6200029a826200024f565b810181811067ffffffffffffffff82111715620002bc57620002bb62000260565b5b80604052505050565b6000620002d162000231565b9050620002df82826200028f565b919050565b600067ffffffffffffffff82111562000302576200030162000260565b5b6200030d826200024f565b9050602081019050919050565b60005b838110156200033a5780820151818401526020810190506200031d565b60008484015250505050565b60006200035d6200035784620002e4565b620002c5565b9050828152602081018484840111156200037c576200037b6200024a565b5b620003898482856200031a565b509392505050565b600082601f830112620003a957620003a862000245565b5b8151620003bb84826020860162000346565b91505092915050565b60008060408385031215620003de57620003dd6200023b565b5b600083015167ffffffffffffffff811115620003ff57620003fe62000240565b5b6200040d8582860162000391565b925050602083015167ffffffffffffffff81111562000431576200043062000240565b5b6200043f8582860162000391565b9150509250929050565b600081519050919050565b7f4e487b7100000000000000000000000000000000000000000000000000000000600052602260045260246000fd5b600060028204905060018216806200049c57607f821691505b602082108103620004b257620004b162000454565b5b50919050565b60008190508160005260206000209050919050565b60006020601f8301049050919050565b600082821b905092915050565b6000600883026200051c7fffffffffffffffffffffffffffffffffffffffffffffffffffffffffffffffff82620004dd565b620005288683620004dd565b95508019841693508086168417925050509392505050565b6000819050919050565b6000819050919050565b6000620005756200056f620005698462000540565b6200054a565b62000540565b9050919050565b6000819050919050565b620005918362000554565b620005a9620005a0826200057c565b848454620004ea565b825550505050565b600090565b620005c0620005b1565b620005cd81848462000586565b505050565b5b81811015620005f557620005e9600082620005b6565b600181019050620005d3565b5050565b601f82111562000644576200060e81620004b8565b6200061984620004cd565b8101602085101562000629578190505b620006416200063885620004cd565b830182620005d2565b50505b505050565b600082821c905092915050565b6000620006696000198460080262000649565b1980831691505092915050565b600062000684838362000656565b9150826002028217905092915050565b6200069f8262000449565b67ffffffffffffffff811115620006bb57620006ba62000260565b5b620006c7825462000483565b620006d4828285620005f9565b600060209050601f8311600181146200070c5760008415620006f7578287015190505b62000703858262000676565b86555062000773565b601f1984166200071c86620004b8565b60005b8281101562000746578489015182556001820191506020850194506020810190506200071f565b8683101562000766578489015162000762601f89168262000656565b8355505b6001600288020188555050505b505050505050565b61402f806200078b6000396000f3fe608060405234801561001057600080fd5b50600436106101585760003560e01c80636352211e116100c3578063b88d4fde1161007c578063b88d4fde146103fd578063c87b56dd14610419578063d204c45e14610449578063d539139314610479578063d547741f14610497578063e985e9c5146104b357610158565b80636352211e1461031557806370a082311461034557806391d148541461037557806395d89b41146103a5578063a217fddf146103c3578063a22cb465146103e157610158565b8063248a9ca311610115578063248a9ca3146102315780632f2ff15d146102615780632f745c591461027d57806336568abe146102ad57806342842e0e146102c95780634f6ccce7146102e557610158565b806301ffc9a71461015d57806306fdde031461018d578063081812fc146101ab578063095ea7b3146101db57806318160ddd146101f757806323b872dd14610215575b600080fd5b61017760048036038101906101729190612923565b6104e3565b604051610184919061296b565b60405180910390f35b6101956104f5565b6040516101a29190612a16565b60405180910390f35b6101c560048036038101906101c09190612a6e565b610587565b6040516101d29190612adc565b60405180910390f35b6101f560048036038101906101f09190612b23565b6105cd565b005b6101ff6106e4565b60405161020c9190612b72565b60405180910390f35b61022f600480360381019061022a9190612b8d565b6106f1565b005b61024b60048036038101906102469190612c16565b610751565b6040516102589190612c52565b60405180910390f35b61027b60048036038101906102769190612c6d565b610771565b005b61029760048036038101906102929190612b23565b610792565b6040516102a49190612b72565b60405180910390f35b6102c760048036038101906102c29190612c6d565b610837565b005b6102e360048036038101906102de9190612b8d565b6108ba565b005b6102ff60048036038101906102fa9190612a6e565b6108da565b60405161030c9190612b72565b60405180910390f35b61032f600480360381019061032a9190612a6e565b61094b565b60405161033c9190612adc565b60405180910390f35b61035f600480360381019061035a9190612cad565b6109d1565b60405161036c9190612b72565b60405180910390f35b61038f600480360381019061038a9190612c6d565b610a88565b60405161039c919061296b565b60405180910390f35b6103ad610af3565b6040516103ba9190612a16565b60405180910390f35b6103cb610b85565b6040516103d89190612c52565b60405180910390f35b6103fb60048036038101906103f69190612d06565b610b8c565b005b61041760048036038101906104129190612e7b565b610ba2565b005b610433600480360381019061042e9190612a6e565b610c04565b6040516104409190612a16565b60405180910390f35b610463600480360381019061045e9190612f9f565b610c16565b6040516104709190612b72565b60405180910390f35b610481610c80565b60405161048e9190612c52565b60405180910390f35b6104b160048036038101906104ac9190612c6d565b610ca4565b005b6104cd60048036038101906104c89190612ffb565b610cc5565b6040516104da919061296b565b60405180910390f35b60006104ee82610d59565b9050919050565b6060600080546105049061306a565b80601f01602080910402602001604051908101604052809291908181526020018280546105309061306a565b801561057d5780601f106105525761010080835404028352916020019161057d565b820191906000526020600020905b81548152906001019060200180831161056057829003601f168201915b5050505050905090565b600061059282610dd3565b6004600083815260200190815260200160002060009054906101000a900473ffffffffffffffffffffffffffffffffffffffff169050919050565b60006105d88261094b565b90508073ffffffffffffffffffffffffffffffffffffffff168373ffffffffffffffffffffffffffffffffffffffff1603610648576040517f08c379a000000000000000000000000000000000000000000000000000000000815260040161063f9061310d565b60405180910390fd5b8073ffffffffffffffffffffffffffffffffffffffff16610667610e1e565b73ffffffffffffffffffffffffffffffffffffffff161480610696575061069581610690610e1e565b610cc5565b5b6106d5576040517f08c379a00000000000000000000000000000000000000000000000000000000081526004016106cc9061319f565b60405180910390fd5b6106df8383610e26565b505050565b6000600980549050905090565b6107026106fc610e1e565b82610edf565b610741576040517f08c379a000000000000000000000000000000000000000000000000000000000815260040161073890613231565b60405180910390fd5b61074c838383610f74565b505050565b6000600b6000838152602001908152602001600020600101549050919050565b61077a82610751565b6107838161126d565b61078d8383611281565b505050565b600061079d836109d1565b82106107de576040517f08c379a00000000000000000000000000000000000000000000000000000000081526004016107d5906132c3565b60405180910390fd5b600760008473ffffffffffffffffffffffffffffffffffffffff1673ffffffffffffffffffffffffffffffffffffffff168152602001908152602001600020600083815260200190815260200160002054905092915050565b61083f610e1e565b73ffffffffffffffffffffffffffffffffffffffff168173ffffffffffffffffffffffffffffffffffffffff16146108ac576040517f08c379a00000000000000000000000000000000000000000000000000000000081526004016108a390613355565b60405180910390fd5b6108b68282611362565b5050565b6108d583838360405180602001604052806000815250610ba2565b505050565b60006108e46106e4565b8210610925576040517f08c379a000000000000000000000000000000000000000000000000000000000815260040161091c906133e7565b60405180910390fd5b6009828154811061093957610938613407565b5b90600052602060002001549050919050565b60008061095783611444565b9050600073ffffffffffffffffffffffffffffffffffffffff168173ffffffffffffffffffffffffffffffffffffffff16036109c8576040517f08c379a00000000000000000000000000000000000000000000000000000000081526004016109bf90613482565b60405180910390fd5b80915050919050565b60008073ffffffffffffffffffffffffffffffffffffffff168273ffffffffffffffffffffffffffffffffffffffff1603610a41576040517f08c379a0000000000000000000000000000000000000000000000000000000008152600401610a3890613514565b60405180910390fd5b600360008373ffffffffffffffffffffffffffffffffffffffff1673ffffffffffffffffffffffffffffffffffffffff168152602001908152602001600020549050919050565b6000600b600084815260200190815260200160002060000160008373ffffffffffffffffffffffffffffffffffffffff1673ffffffffffffffffffffffffffffffffffffffff16815260200190815260200160002060009054906101000a900460ff16905092915050565b606060018054610b029061306a565b80601f0160208091040260200160405190810160405280929190818152602001828054610b2e9061306a565b8015610b7b5780601f10610b5057610100808354040283529160200191610b7b565b820191906000526020600020905b815481529060010190602001808311610b5e57829003601f168201915b5050505050905090565b6000801b81565b610b9e610b97610e1e565b8383611481565b5050565b610bb3610bad610e1e565b83610edf565b610bf2576040517f08c379a0000000000000000000000000000000000000000000000000000000008152600401610be990613231565b60405180910390fd5b610bfe848484846115ed565b50505050565b6060610c0f82611649565b9050919050565b60007f9f2df0fed2c77648de5860a4cc508cd0818c85b8b8a1ab4ceeef8d981c8956a6610c428161126d565b6000600c549050600c6000815480929190610c5c90613563565b9190505550610c6b858261175b565b610c758185611779565b809250505092915050565b7f9f2df0fed2c77648de5860a4cc508cd0818c85b8b8a1ab4ceeef8d981c8956a681565b610cad82610751565b610cb68161126d565b610cc08383611362565b505050565b6000600560008473ffffffffffffffffffffffffffffffffffffffff1673ffffffffffffffffffffffffffffffffffffffff16815260200190815260200160002060008373ffffffffffffffffffffffffffffffffffffffff1673ffffffffffffffffffffffffffffffffffffffff16815260200190815260200160002060009054906101000a900460ff16905092915050565b60007f7965db0b000000000000000000000000000000000000000000000000000000007bffffffffffffffffffffffffffffffffffffffffffffffffffffffff1916827bffffffffffffffffffffffffffffffffffffffffffffffffffffffff19161480610dcc5750610dcb8261181d565b5b9050919050565b610ddc81611897565b610e1b576040517f08c379a0000000000000000000000000000000000000000000000000000000008152600401610e1290613482565b60405180910390fd5b50565b600033905090565b816004600083815260200190815260200160002060006101000a81548173ffffffffffffffffffffffffffffffffffffffff021916908373ffffffffffffffffffffffffffffffffffffffff160217905550808273ffffffffffffffffffffffffffffffffffffffff16610e998361094b565b73ffffffffffffffffffffffffffffffffffffffff167f8c5be1e5ebec7d5bd14f71427d1e84f3dd0314c0f7b2291e5b200ac8c7c3b92560405160405180910390a45050565b600080610eeb8361094b565b90508073ffffffffffffffffffffffffffffffffffffffff168473ffffffffffffffffffffffffffffffffffffffff161480610f2d5750610f2c8185610cc5565b5b80610f6b57508373ffffffffffffffffffffffffffffffffffffffff16610f5384610587565b73ffffffffffffffffffffffffffffffffffffffff16145b91505092915050565b8273ffffffffffffffffffffffffffffffffffffffff16610f948261094b565b73ffffffffffffffffffffffffffffffffffffffff1614610fea576040517f08c379a0000000000000000000000000000000000000000000000000000000008152600401610fe19061361d565b60405180910390fd5b600073ffffffffffffffffffffffffffffffffffffffff168273ffffffffffffffffffffffffffffffffffffffff1603611059576040517f08c379a0000000000000000000000000000000000000000000000000000000008152600401611050906136af565b60405180910390fd5b61106683838360016118d8565b8273ffffffffffffffffffffffffffffffffffffffff166110868261094b565b73ffffffffffffffffffffffffffffffffffffffff16146110dc576040517f08c379a00000000000000000000000000000000000000000000000000000000081526004016110d39061361d565b60405180910390fd5b6004600082815260200190815260200160002060006101000a81549073ffffffffffffffffffffffffffffffffffffffff02191690556001600360008573ffffffffffffffffffffffffffffffffffffffff1673ffffffffffffffffffffffffffffffffffffffff168152602001908152602001600020600082825403925050819055506001600360008473ffffffffffffffffffffffffffffffffffffffff1673ffffffffffffffffffffffffffffffffffffffff16815260200190815260200160002060008282540192505081905550816002600083815260200190815260200160002060006101000a81548173ffffffffffffffffffffffffffffffffffffffff021916908373ffffffffffffffffffffffffffffffffffffffff160217905550808273ffffffffffffffffffffffffffffffffffffffff168473ffffffffffffffffffffffffffffffffffffffff167fddf252ad1be2c89b69c2b068fc378daa952ba7f163c4a11628f55a4df523b3ef60405160405180910390a461126883838360016118ea565b505050565b61127e81611279610e1e565b6118f0565b50565b61128b8282610a88565b61135e576001600b600084815260200190815260200160002060000160008373ffffffffffffffffffffffffffffffffffffffff1673ffffffffffffffffffffffffffffffffffffffff16815260200190815260200160002060006101000a81548160ff021916908315150217905550611303610e1e565b73ffffffffffffffffffffffffffffffffffffffff168173ffffffffffffffffffffffffffffffffffffffff16837f2f8788117e7eff1d82e926ec794901d17c78024a50270940304540a733656f0d60405160405180910390a45b5050565b61136c8282610a88565b15611440576000600b600084815260200190815260200160002060000160008373ffffffffffffffffffffffffffffffffffffffff1673ffffffffffffffffffffffffffffffffffffffff16815260200190815260200160002060006101000a81548160ff0219169083151502179055506113e5610e1e565b73ffffffffffffffffffffffffffffffffffffffff168173ffffffffffffffffffffffffffffffffffffffff16837ff6391f5c32d9c69d2a47ea670b442974b53935d1edc7fd64eb21e047a839171b60405160405180910390a45b5050565b60006002600083815260200190815260200160002060009054906101000a900473ffffffffffffffffffffffffffffffffffffffff169050919050565b8173ffffffffffffffffffffffffffffffffffffffff168373ffffffffffffffffffffffffffffffffffffffff16036114ef576040517f08c379a00000000000000000000000000000000000000000000000000000000081526004016114e69061371b565b60405180910390fd5b80600560008573ffffffffffffffffffffffffffffffffffffffff1673ffffffffffffffffffffffffffffffffffffffff16815260200190815260200160002060008473ffffffffffffffffffffffffffffffffffffffff1673ffffffffffffffffffffffffffffffffffffffff16815260200190815260200160002060006101000a81548160ff0219169083151502179055508173ffffffffffffffffffffffffffffffffffffffff168373ffffffffffffffffffffffffffffffffffffffff167f17307eab39ab6107e8899845ad3d59bd9653f200f220920489ca2b5937696c31836040516115e0919061296b565b60405180910390a3505050565b6115f8848484610f74565b61160484848484611975565b611643576040517f08c379a000000000000000000000000000000000000000000000000000000000815260040161163a906137ad565b60405180910390fd5b50505050565b606061165482610dd3565b60006006600084815260200190815260200160002080546116749061306a565b80601f01602080910402602001604051908101604052809291908181526020018280546116a09061306a565b80156116ed5780601f106116c2576101008083540402835291602001916116ed565b820191906000526020600020905b8154815290600101906020018083116116d057829003601f168201915b5050505050905060006116fe611afc565b90506000815103611713578192505050611756565b600082511115611748578082604051602001611730929190613809565b60405160208183030381529060405292505050611756565b61175184611b13565b925050505b919050565b611775828260405180602001604052806000815250611b7b565b5050565b61178282611897565b6117c1576040517f08c379a00000000000000000000000000000000000000000000000000000000081526004016117b89061389f565b60405180910390fd5b806006600084815260200190815260200160002090816117e19190613a6b565b507ff8e1a15aba9398e019f0b49df1a4fde98ee17ae345cb5f6b5e2c27f5033e8ce7826040516118119190612b72565b60405180910390a15050565b60007f780e9d63000000000000000000000000000000000000000000000000000000007bffffffffffffffffffffffffffffffffffffffffffffffffffffffff1916827bffffffffffffffffffffffffffffffffffffffffffffffffffffffff19161480611890575061188f82611bd6565b5b9050919050565b60008073ffffffffffffffffffffffffffffffffffffffff166118b983611444565b73ffffffffffffffffffffffffffffffffffffffff1614159050919050565b6118e484848484611c37565b50505050565b50505050565b6118fa8282610a88565b6119715761190781611d95565b6119158360001c6020611dc2565b604051602001611926929190613bd5565b6040516020818303038152906040526040517f08c379a00000000000000000000000000000000000000000000000000000000081526004016119689190612a16565b60405180910390fd5b5050565b60006119968473ffffffffffffffffffffffffffffffffffffffff16611ffe565b15611aef578373ffffffffffffffffffffffffffffffffffffffff1663150b7a026119bf610e1e565b8786866040518563ffffffff1660e01b81526004016119e19493929190613c64565b6020604051808303816000875af1925050508015611a1d57506040513d601f19601f82011682018060405250810190611a1a9190613cc5565b60015b611a9f573d8060008114611a4d576040519150601f19603f3d011682016040523d82523d6000602084013e611a52565b606091505b506000815103611a97576040517f08c379a0000000000000000000000000000000000000000000000000000000008152600401611a8e906137ad565b60405180910390fd5b805181602001fd5b63150b7a0260e01b7bffffffffffffffffffffffffffffffffffffffffffffffffffffffff1916817bffffffffffffffffffffffffffffffffffffffffffffffffffffffff191614915050611af4565b600190505b949350505050565b606060405180602001604052806000815250905090565b6060611b1e82610dd3565b6000611b28611afc565b90506000815111611b485760405180602001604052806000815250611b73565b80611b5284612021565b604051602001611b63929190613809565b6040516020818303038152906040525b915050919050565b611b8583836120ef565b611b926000848484611975565b611bd1576040517f08c379a0000000000000000000000000000000000000000000000000000000008152600401611bc8906137ad565b60405180910390fd5b505050565b6000634906490660e01b7bffffffffffffffffffffffffffffffffffffffffffffffffffffffff1916827bffffffffffffffffffffffffffffffffffffffffffffffffffffffff19161480611c305750611c2f8261230c565b5b9050919050565b611c43848484846123ee565b6001811115611c87576040517f08c379a0000000000000000000000000000000000000000000000000000000008152600401611c7e90613d64565b60405180910390fd5b6000829050600073ffffffffffffffffffffffffffffffffffffffff168573ffffffffffffffffffffffffffffffffffffffff1603611cce57611cc9816123f4565b611d0d565b8373ffffffffffffffffffffffffffffffffffffffff168573ffffffffffffffffffffffffffffffffffffffff1614611d0c57611d0b858261243d565b5b5b600073ffffffffffffffffffffffffffffffffffffffff168473ffffffffffffffffffffffffffffffffffffffff1603611d4f57611d4a816125aa565b611d8e565b8473ffffffffffffffffffffffffffffffffffffffff168473ffffffffffffffffffffffffffffffffffffffff1614611d8d57611d8c848261267b565b5b5b5050505050565b6060611dbb8273ffffffffffffffffffffffffffffffffffffffff16601460ff16611dc2565b9050919050565b606060006002836002611dd59190613d84565b611ddf9190613dc6565b67ffffffffffffffff811115611df857611df7612d50565b5b6040519080825280601f01601f191660200182016040528015611e2a5781602001600182028036833780820191505090505b5090507f300000000000000000000000000000000000000000000000000000000000000081600081518110611e6257611e61613407565b5b60200101907effffffffffffffffffffffffffffffffffffffffffffffffffffffffffffff1916908160001a9053507f780000000000000000000000000000000000000000000000000000000000000081600181518110611ec657611ec5613407565b5b60200101907effffffffffffffffffffffffffffffffffffffffffffffffffffffffffffff1916908160001a90535060006001846002611f069190613d84565b611f109190613dc6565b90505b6001811115611fb0577f3031323334353637383961626364656600000000000000000000000000000000600f861660108110611f5257611f51613407565b5b1a60f81b828281518110611f6957611f68613407565b5b60200101907effffffffffffffffffffffffffffffffffffffffffffffffffffffffffffff1916908160001a905350600485901c945080611fa990613dfa565b9050611f13565b5060008414611ff4576040517f08c379a0000000000000000000000000000000000000000000000000000000008152600401611feb90613e6f565b60405180910390fd5b8091505092915050565b6000808273ffffffffffffffffffffffffffffffffffffffff163b119050919050565b606060006001612030846126fa565b01905060008167ffffffffffffffff81111561204f5761204e612d50565b5b6040519080825280601f01601f1916602001820160405280156120815781602001600182028036833780820191505090505b509050600082602001820190505b6001156120e4578080600190039150507f3031323334353637383961626364656600000000000000000000000000000000600a86061a8153600a85816120d8576120d7613e8f565b5b0494506000850361208f575b819350505050919050565b600073ffffffffffffffffffffffffffffffffffffffff168273ffffffffffffffffffffffffffffffffffffffff160361215e576040517f08c379a000000000000000000000000000000000000000000000000000000000815260040161215590613f0a565b60405180910390fd5b61216781611897565b156121a7576040517f08c379a000000000000000000000000000000000000000000000000000000000815260040161219e90613f76565b60405180910390fd5b6121b56000838360016118d8565b6121be81611897565b156121fe576040517f08c379a00000000000000000000000000000000000000000000000000000000081526004016121f590613f76565b60405180910390fd5b6001600360008473ffffffffffffffffffffffffffffffffffffffff1673ffffffffffffffffffffffffffffffffffffffff16815260200190815260200160002060008282540192505081905550816002600083815260200190815260200160002060006101000a81548173ffffffffffffffffffffffffffffffffffffffff021916908373ffffffffffffffffffffffffffffffffffffffff160217905550808273ffffffffffffffffffffffffffffffffffffffff16600073ffffffffffffffffffffffffffffffffffffffff167fddf252ad1be2c89b69c2b068fc378daa952ba7f163c4a11628f55a4df523b3ef60405160405180910390a46123086000838360016118ea565b5050565b60007f80ac58cd000000000000000000000000000000000000000000000000000000007bffffffffffffffffffffffffffffffffffffffffffffffffffffffff1916827bffffffffffffffffffffffffffffffffffffffffffffffffffffffff191614806123d757507f5b5e139f000000000000000000000000000000000000000000000000000000007bffffffffffffffffffffffffffffffffffffffffffffffffffffffff1916827bffffffffffffffffffffffffffffffffffffffffffffffffffffffff1916145b806123e757506123e68261284d565b5b9050919050565b50505050565b600980549050600a600083815260200190815260200160002081905550600981908060018154018082558091505060019003906000526020600020016000909190919091505550565b6000600161244a846109d1565b6124549190613f96565b9050600060086000848152602001908152602001600020549050818114612539576000600760008673ffffffffffffffffffffffffffffffffffffffff1673ffffffffffffffffffffffffffffffffffffffff168152602001908152602001600020600084815260200190815260200160002054905080600760008773ffffffffffffffffffffffffffffffffffffffff1673ffffffffffffffffffffffffffffffffffffffff168152602001908152602001600020600084815260200190815260200160002081905550816008600083815260200190815260200160002081905550505b6008600084815260200190815260200160002060009055600760008573ffffffffffffffffffffffffffffffffffffffff1673ffffffffffffffffffffffffffffffffffffffff16815260200190815260200160002060008381526020019081526020016000206000905550505050565b600060016009805490506125be9190613f96565b90506000600a60008481526020019081526020016000205490506000600983815481106125ee576125ed613407565b5b9060005260206000200154905080600983815481106126105761260f613407565b5b906000526020600020018190555081600a600083815260200190815260200160002081905550600a600085815260200190815260200160002060009055600980548061265f5761265e613fca565b5b6001900381819060005260206000200160009055905550505050565b6000612686836109d1565b905081600760008573ffffffffffffffffffffffffffffffffffffffff1673ffffffffffffffffffffffffffffffffffffffff168152602001908152602001600020600083815260200190815260200160002081905550806008600084815260200190815260200160002081905550505050565b600080600090507a184f03e93ff9f4daa797ed6e38ed64bf6a1f0100000000000000008310612758577a184f03e93ff9f4daa797ed6e38ed64bf6a1f010000000000000000838161274e5761274d613e8f565b5b0492506040810190505b6d04ee2d6d415b85acef81000000008310612795576d04ee2d6d415b85acef8100000000838161278b5761278a613e8f565b5b0492506020810190505b662386f26fc1000083106127c457662386f26fc1000083816127ba576127b9613e8f565b5b0492506010810190505b6305f5e10083106127ed576305f5e10083816127e3576127e2613e8f565b5b0492506008810190505b612710831061281257612710838161280857612807613e8f565b5b0492506004810190505b60648310612835576064838161282b5761282a613e8f565b5b0492506002810190505b600a8310612844576001810190505b80915050919050565b60007f01ffc9a7000000000000000000000000000000000000000000000000000000007bffffffffffffffffffffffffffffffffffffffffffffffffffffffff1916827bffffffffffffffffffffffffffffffffffffffffffffffffffffffff1916149050919050565b6000604051905090565b600080fd5b600080fd5b60007fffffffff0000000000000000000000000000000000000000000000000000000082169050919050565b612900816128cb565b811461290b57600080fd5b50565b60008135905061291d816128f7565b92915050565b600060208284031215612939576129386128c1565b5b60006129478482850161290e565b91505092915050565b60008115159050919050565b61296581612950565b82525050565b6000602082019050612980600083018461295c565b92915050565b600081519050919050565b600082825260208201905092915050565b60005b838110156129c05780820151818401526020810190506129a5565b60008484015250505050565b6000601f19601f8301169050919050565b60006129e882612986565b6129f28185612991565b9350612a028185602086016129a2565b612a0b816129cc565b840191505092915050565b60006020820190508181036000830152612a3081846129dd565b905092915050565b6000819050919050565b612a4b81612a38565b8114612a5657600080fd5b50565b600081359050612a6881612a42565b92915050565b600060208284031215612a8457612a836128c1565b5b6000612a9284828501612a59565b91505092915050565b600073ffffffffffffffffffffffffffffffffffffffff82169050919050565b6000612ac682612a9b565b9050919050565b612ad681612abb565b82525050565b6000602082019050612af16000830184612acd565b92915050565b612b0081612abb565b8114612b0b57600080fd5b50565b600081359050612b1d81612af7565b92915050565b60008060408385031215612b3a57612b396128c1565b5b6000612b4885828601612b0e565b9250506020612b5985828601612a59565b9150509250929050565b612b6c81612a38565b82525050565b6000602082019050612b876000830184612b63565b92915050565b600080600060608486031215612ba657612ba56128c1565b5b6000612bb486828701612b0e565b9350506020612bc586828701612b0e565b9250506040612bd686828701612a59565b9150509250925092565b6000819050919050565b612bf381612be0565b8114612bfe57600080fd5b50565b600081359050612c1081612bea565b92915050565b600060208284031215612c2c57612c2b6128c1565b5b6000612c3a84828501612c01565b91505092915050565b612c4c81612be0565b82525050565b6000602082019050612c676000830184612c43565b92915050565b60008060408385031215612c8457612c836128c1565b5b6000612c9285828601612c01565b9250506020612ca385828601612b0e565b9150509250929050565b600060208284031215612cc357612cc26128c1565b5b6000612cd184828501612b0e565b91505092915050565b612ce381612950565b8114612cee57600080fd5b50565b600081359050612d0081612cda565b92915050565b60008060408385031215612d1d57612d1c6128c1565b5b6000612d2b85828601612b0e565b9250506020612d3c85828601612cf1565b9150509250929050565b600080fd5b600080fd5b7f4e487b7100000000000000000000000000000000000000000000000000000000600052604160045260246000fd5b612d88826129cc565b810181811067ffffffffffffffff82111715612da757612da6612d50565b5b80604052505050565b6000612dba6128b7565b9050612dc68282612d7f565b919050565b600067ffffffffffffffff821115612de657612de5612d50565b5b612def826129cc565b9050602081019050919050565b82818337600083830152505050565b6000612e1e612e1984612dcb565b612db0565b905082815260208101848484011115612e3a57612e39612d4b565b5b612e45848285612dfc565b509392505050565b600082601f830112612e6257612e61612d46565b5b8135612e72848260208601612e0b565b91505092915050565b60008060008060808587031215612e9557612e946128c1565b5b6000612ea387828801612b0e565b9450506020612eb487828801612b0e565b9350506040612ec587828801612a59565b925050606085013567ffffffffffffffff811115612ee657612ee56128c6565b5b612ef287828801612e4d565b91505092959194509250565b600067ffffffffffffffff821115612f1957612f18612d50565b5b612f22826129cc565b9050602081019050919050565b6000612f42612f3d84612efe565b612db0565b905082815260208101848484011115612f5e57612f5d612d4b565b5b612f69848285612dfc565b509392505050565b600082601f830112612f8657612f85612d46565b5b8135612f96848260208601612f2f565b91505092915050565b60008060408385031215612fb657612fb56128c1565b5b6000612fc485828601612b0e565b925050602083013567ffffffffffffffff811115612fe557612fe46128c6565b5b612ff185828601612f71565b9150509250929050565b60008060408385031215613012576130116128c1565b5b600061302085828601612b0e565b925050602061303185828601612b0e565b9150509250929050565b7f4e487b7100000000000000000000000000000000000000000000000000000000600052602260045260246000fd5b6000600282049050600182168061308257607f821691505b6020821081036130955761309461303b565b5b50919050565b7f4552433732313a20617070726f76616c20746f2063757272656e74206f776e6560008201527f7200000000000000000000000000000000000000000000000000000000000000602082015250565b60006130f7602183612991565b91506131028261309b565b604082019050919050565b60006020820190508181036000830152613126816130ea565b9050919050565b7f4552433732313a20617070726f76652063616c6c6572206973206e6f7420746f60008201527f6b656e206f776e6572206f7220617070726f76656420666f7220616c6c000000602082015250565b6000613189603d83612991565b91506131948261312d565b604082019050919050565b600060208201905081810360008301526131b88161317c565b9050919050565b7f4552433732313a2063616c6c6572206973206e6f7420746f6b656e206f776e6560008201527f72206f7220617070726f76656400000000000000000000000000000000000000602082015250565b600061321b602d83612991565b9150613226826131bf565b604082019050919050565b6000602082019050818103600083015261324a8161320e565b9050919050565b7f455243373231456e756d657261626c653a206f776e657220696e646578206f7560008201527f74206f6620626f756e6473000000000000000000000000000000000000000000602082015250565b60006132ad602b83612991565b91506132b882613251565b604082019050919050565b600060208201905081810360008301526132dc816132a0565b9050919050565b7f416363657373436f6e74726f6c3a2063616e206f6e6c792072656e6f756e636560008201527f20726f6c657320666f722073656c660000000000000000000000000000000000602082015250565b600061333f602f83612991565b915061334a826132e3565b604082019050919050565b6000602082019050818103600083015261336e81613332565b9050919050565b7f455243373231456e756d657261626c653a20676c6f62616c20696e646578206f60008201527f7574206f6620626f756e64730000000000000000000000000000000000000000602082015250565b60006133d1602c83612991565b91506133dc82613375565b604082019050919050565b60006020820190508181036000830152613400816133c4565b9050919050565b7f4e487b7100000000000000000000000000000000000000000000000000000000600052603260045260246000fd5b7f4552433732313a20696e76616c696420746f6b656e2049440000000000000000600082015250565b600061346c601883612991565b915061347782613436565b602082019050919050565b6000602082019050818103600083015261349b8161345f565b9050919050565b7f4552433732313a2061646472657373207a65726f206973206e6f74206120766160008201527f6c6964206f776e65720000000000000000000000000000000000000000000000602082015250565b60006134fe602983612991565b9150613509826134a2565b604082019050919050565b6000602082019050818103600083015261352d816134f1565b9050919050565b7f4e487b7100000000000000000000000000000000000000000000000000000000600052601160045260246000fd5b600061356e82612a38565b91507fffffffffffffffffffffffffffffffffffffffffffffffffffffffffffffffff82036135a05761359f613534565b5b600182019050919050565b7f4552433732313a207472616e736665722066726f6d20696e636f72726563742060008201527f6f776e6572000000000000000000000000000000000000000000000000000000602082015250565b6000613607602583612991565b9150613612826135ab565b604082019050919050565b60006020820190508181036000830152613636816135fa565b9050919050565b7f4552433732313a207472616e7366657220746f20746865207a65726f2061646460008201527f7265737300000000000000000000000000000000000000000000000000000000602082015250565b6000613699602483612991565b91506136a48261363d565b604082019050919050565b600060208201905081810360008301526136c88161368c565b9050919050565b7f4552433732313a20617070726f766520746f2063616c6c657200000000000000600082015250565b6000613705601983612991565b9150613710826136cf565b602082019050919050565b60006020820190508181036000830152613734816136f8565b9050919050565b7f4552433732313a207472616e7366657220746f206e6f6e20455243373231526560008201527f63656976657220696d706c656d656e7465720000000000000000000000000000602082015250565b6000613797603283612991565b91506137a28261373b565b604082019050919050565b600060208201905081810360008301526137c68161378a565b9050919050565b600081905092915050565b60006137e382612986565b6137ed81856137cd565b93506137fd8185602086016129a2565b80840191505092915050565b600061381582856137d8565b915061382182846137d8565b91508190509392505050565b7f45524337323155524953746f726167653a2055524920736574206f66206e6f6e60008201527f6578697374656e7420746f6b656e000000000000000000000000000000000000602082015250565b6000613889602e83612991565b91506138948261382d565b604082019050919050565b600060208201905081810360008301526138b88161387c565b9050919050565b60008190508160005260206000209050919050565b60006020601f8301049050919050565b600082821b905092915050565b6000600883026139217fffffffffffffffffffffffffffffffffffffffffffffffffffffffffffffffff826138e4565b61392b86836138e4565b95508019841693508086168417925050509392505050565b6000819050919050565b600061396861396361395e84612a38565b613943565b612a38565b9050919050565b6000819050919050565b6139828361394d565b61399661398e8261396f565b8484546138f1565b825550505050565b600090565b6139ab61399e565b6139b6818484613979565b505050565b5b818110156139da576139cf6000826139a3565b6001810190506139bc565b5050565b601f821115613a1f576139f0816138bf565b6139f9846138d4565b81016020851015613a08578190505b613a1c613a14856138d4565b8301826139bb565b50505b505050565b600082821c905092915050565b6000613a4260001984600802613a24565b1980831691505092915050565b6000613a5b8383613a31565b9150826002028217905092915050565b613a7482612986565b67ffffffffffffffff811115613a8d57613a8c612d50565b5b613a97825461306a565b613aa28282856139de565b600060209050601f831160018114613ad55760008415613ac3578287015190505b613acd8582613a4f565b865550613b35565b601f198416613ae3866138bf565b60005b82811015613b0b57848901518255600182019150602085019450602081019050613ae6565b86831015613b285784890151613b24601f891682613a31565b8355505b6001600288020188555050505b505050505050565b7f416363657373436f6e74726f6c3a206163636f756e7420000000000000000000600082015250565b6000613b736017836137cd565b9150613b7e82613b3d565b601782019050919050565b7f206973206d697373696e6720726f6c6520000000000000000000000000000000600082015250565b6000613bbf6011836137cd565b9150613bca82613b89565b601182019050919050565b6000613be082613b66565b9150613bec82856137d8565b9150613bf782613bb2565b9150613c0382846137d8565b91508190509392505050565b600081519050919050565b600082825260208201905092915050565b6000613c3682613c0f565b613c408185613c1a565b9350613c508185602086016129a2565b613c59816129cc565b840191505092915050565b6000608082019050613c796000830187612acd565b613c866020830186612acd565b613c936040830185612b63565b8181036060830152613ca58184613c2b565b905095945050505050565b600081519050613cbf816128f7565b92915050565b600060208284031215613cdb57613cda6128c1565b5b6000613ce984828501613cb0565b91505092915050565b7f455243373231456e756d657261626c653a20636f6e736563757469766520747260008201527f616e7366657273206e6f7420737570706f727465640000000000000000000000602082015250565b6000613d4e603583612991565b9150613d5982613cf2565b604082019050919050565b60006020820190508181036000830152613d7d81613d41565b9050919050565b6000613d8f82612a38565b9150613d9a83612a38565b9250828202613da881612a38565b91508282048414831517613dbf57613dbe613534565b5b5092915050565b6000613dd182612a38565b9150613ddc83612a38565b9250828201905080821115613df457613df3613534565b5b92915050565b6000613e0582612a38565b915060008203613e1857613e17613534565b5b600182039050919050565b7f537472696e67733a20686578206c656e67746820696e73756666696369656e74600082015250565b6000613e59602083612991565b9150613e6482613e23565b602082019050919050565b60006020820190508181036000830152613e8881613e4c565b9050919050565b7f4e487b7100000000000000000000000000000000000000000000000000000000600052601260045260246000fd5b7f4552433732313a206d696e7420746f20746865207a65726f2061646472657373600082015250565b6000613ef4602083612991565b9150613eff82613ebe565b602082019050919050565b60006020820190508181036000830152613f2381613ee7565b9050919050565b7f4552433732313a20746f6b656e20616c7265616479206d696e74656400000000600082015250565b6000613f60601c83612991565b9150613f6b82613f2a565b602082019050919050565b60006020820190508181036000830152613f8f81613f53565b9050919050565b6000613fa182612a38565b9150613fac83612a38565b9250828203905081811115613fc457613fc3613534565b5b92915050565b7f4e487b7100000000000000000000000000000000000000000000000000000000600052603160045260246000fdfea264697066735822122008b03a17fc2947be004f69e4b2c5bf29519aeabd95141d556b1d73e87251b7e964736f6c63430008130033",
  "linkReferences": {},
  "deployedLinkReferences": {}
}